{
  "contractName": "PasswordManager",
  "abi": [
    {
      "inputs": [],
      "stateMutability": "nonpayable",
      "type": "constructor"
    },
    {
      "inputs": [
        {
          "internalType": "uint256",
          "name": "",
          "type": "uint256"
        }
      ],
      "name": "Vault",
      "outputs": [
        {
          "internalType": "uint256",
          "name": "id",
          "type": "uint256"
        },
        {
          "internalType": "string",
          "name": "username",
          "type": "string"
        },
        {
          "internalType": "string",
          "name": "masterPassword",
          "type": "string"
        }
      ],
      "stateMutability": "view",
      "type": "function",
      "constant": true
    },
    {
      "inputs": [
        {
          "internalType": "uint256",
          "name": "",
          "type": "uint256"
        }
      ],
      "name": "credentials",
      "outputs": [
        {
          "internalType": "uint256",
          "name": "VaultID",
          "type": "uint256"
        },
        {
          "internalType": "string",
          "name": "name",
          "type": "string"
        },
        {
          "internalType": "string",
          "name": "username",
          "type": "string"
        },
        {
          "internalType": "string",
          "name": "password",
          "type": "string"
        }
      ],
      "stateMutability": "view",
      "type": "function",
      "constant": true
    },
    {
      "inputs": [],
      "name": "getAllVaultUsernames",
      "outputs": [
        {
          "internalType": "string[]",
          "name": "",
          "type": "string[]"
        }
      ],
      "stateMutability": "view",
      "type": "function",
      "constant": true
    },
    {
      "inputs": [
        {
          "internalType": "uint256",
          "name": "vid",
          "type": "uint256"
        }
      ],
      "name": "getCredentialNames",
      "outputs": [
        {
          "internalType": "string[]",
          "name": "",
          "type": "string[]"
        }
      ],
      "stateMutability": "view",
      "type": "function",
      "constant": true
    },
    {
      "inputs": [
        {
          "internalType": "string",
          "name": "_username",
          "type": "string"
        }
      ],
      "name": "isUserName",
      "outputs": [
        {
          "internalType": "bool",
          "name": "",
          "type": "bool"
        }
      ],
      "stateMutability": "view",
      "type": "function",
      "constant": true
    },
    {
      "inputs": [
        {
          "internalType": "string",
          "name": "_username",
          "type": "string"
        }
      ],
      "name": "getMasterPassword",
      "outputs": [
        {
          "internalType": "string",
          "name": "",
          "type": "string"
        }
      ],
      "stateMutability": "view",
      "type": "function",
      "constant": true
    },
    {
      "inputs": [
        {
          "internalType": "string",
          "name": "_username",
          "type": "string"
        },
        {
          "internalType": "string",
          "name": "_masterPassword",
          "type": "string"
        }
      ],
      "name": "createNewUser",
      "outputs": [],
      "stateMutability": "nonpayable",
      "type": "function"
    },
    {
      "inputs": [
        {
          "internalType": "string",
          "name": "vaultusername",
          "type": "string"
        },
        {
          "internalType": "string",
          "name": "vaultmasterpassword",
          "type": "string"
        }
      ],
      "name": "getVaultID",
      "outputs": [
        {
          "internalType": "uint256",
          "name": "",
          "type": "uint256"
        }
      ],
      "stateMutability": "view",
      "type": "function",
      "constant": true
    },
    {
      "inputs": [
        {
          "internalType": "uint256",
          "name": "vid",
          "type": "uint256"
        },
        {
          "internalType": "string",
          "name": "_name",
          "type": "string"
        },
        {
          "internalType": "string",
          "name": "_username",
          "type": "string"
        },
        {
          "internalType": "string",
          "name": "_password",
          "type": "string"
        }
      ],
      "name": "addCredentials",
      "outputs": [],
      "stateMutability": "nonpayable",
      "type": "function"
    },
    {
      "inputs": [
        {
          "internalType": "uint256",
          "name": "vid",
          "type": "uint256"
        },
        {
          "internalType": "string",
          "name": "_name",
          "type": "string"
        }
      ],
      "name": "getCredentialsUserName",
      "outputs": [
        {
          "internalType": "string[]",
          "name": "",
          "type": "string[]"
        }
      ],
      "stateMutability": "view",
      "type": "function",
      "constant": true
    },
    {
      "inputs": [
        {
          "internalType": "uint256",
          "name": "vid",
          "type": "uint256"
        },
        {
          "internalType": "string",
          "name": "_name",
          "type": "string"
        }
      ],
      "name": "getCredentialsPassword",
      "outputs": [
        {
          "internalType": "string[]",
          "name": "",
          "type": "string[]"
        }
      ],
      "stateMutability": "view",
      "type": "function",
      "constant": true
    }
  ],
  "bytecode": "0x608060405234801561001057600080fd5b50611c96806100206000396000f3fe608060405234801561001057600080fd5b50600436106100a95760003560e01c8063526b00ed11610071578063526b00ed14610178578063a85a60d5146101a8578063aeb67707146101d8578063c74d7d38146101f4578063d7469f0b14610224578063e0574e3f14610256576100a9565b8063085d2052146100ae578063297c5130146100cc5780633ccabfa4146100fc5780634044af561461012c5780634dfa3f181461015c575b600080fd5b6100b6610289565b6040516100c391906112de565b60405180910390f35b6100e660048036038101906100e19190611449565b610418565b6040516100f391906114dc565b60405180910390f35b61011660048036038101906101119190611534565b610583565b60405161012391906112de565b60405180910390f35b61014660048036038101906101419190611449565b610792565b60405161015391906115ab565b60405180910390f35b610176600480360381019061017191906115c6565b610842565b005b610192600480360381019061018d91906115c6565b6108de565b60405161019f919061164d565b60405180910390f35b6101c260048036038101906101bd9190611668565b610a2b565b6040516101cf91906112de565b60405180910390f35b6101f260048036038101906101ed9190611695565b610bbb565b005b61020e60048036038101906102099190611534565b610c5b565b60405161021b91906112de565b60405180910390f35b61023e60048036038101906102399190611668565b610e6a565b60405161024d93929190611750565b60405180910390f35b610270600480360381019061026b9190611668565b610fb4565b6040516102809493929190611795565b60405180910390f35b60606000805b6000805490508110156102bd5781806102a79061181e565b92505080806102b59061181e565b91505061028f565b5060008167ffffffffffffffff8111156102da576102d961131e565b5b60405190808252806020026020018201604052801561030d57816020015b60608152602001906001900390816102f85790505b5090506000805b60008054905081101561040e576000818154811061033557610334611866565b5b90600052602060002090600302016001018054610351906118c4565b80601f016020809104026020016040519081016040528092919081815260200182805461037d906118c4565b80156103ca5780601f1061039f576101008083540402835291602001916103ca565b820191906000526020600020905b8154815290600101906020018083116103ad57829003601f168201915b50505050508383815181106103e2576103e1611866565b5b602002602001018190525081806103f89061181e565b92505080806104069061181e565b915050610314565b5081935050505090565b6060600060405180602001604052806000815250905060005b600080549050811015610579576000818154811061045257610451611866565b5b90600052602060002090600302016001016040516020016104739190611998565b604051602081830303815290604052805190602001208460405160200161049a91906119e0565b604051602081830303815290604052805190602001200361056657600081815481106104c9576104c8611866565b5b906000526020600020906003020160020180546104e5906118c4565b80601f0160208091040260200160405190810160405280929190818152602001828054610511906118c4565b801561055e5780601f106105335761010080835404028352916020019161055e565b820191906000526020600020905b81548152906001019060200180831161054157829003601f168201915b505050505091505b80806105719061181e565b915050610431565b5080915050919050565b6060600060018054905067ffffffffffffffff8111156105a6576105a561131e565b5b6040519080825280602002602001820160405280156105d957816020015b60608152602001906001900390816105c45790505b5090506000805b600180549050811015610783576001818154811061060157610600611866565b5b90600052602060002090600402016001016040516020016106229190611998565b604051602081830303815290604052805190602001208560405160200161064991906119e0565b6040516020818303038152906040528051906020012014801561069057506001818154811061067b5761067a611866565b5b90600052602060002090600402016000015486145b1561077057600181815481106106a9576106a8611866565b5b906000526020600020906004020160030180546106c5906118c4565b80601f01602080910402602001604051908101604052809291908181526020018280546106f1906118c4565b801561073e5780601f106107135761010080835404028352916020019161073e565b820191906000526020600020905b81548152906001019060200180831161072157829003601f168201915b505050505083838151811061075657610755611866565b5b6020026020010181905250818061076c9061181e565b9250505b808061077b9061181e565b9150506105e0565b50808252819250505092915050565b6000806000905060005b60008054905081101561083857600081815481106107bd576107bc611866565b5b90600052602060002090600302016001016040516020016107de9190611998565b604051602081830303815290604052805190602001208460405160200161080591906119e0565b604051602081830303815290604052805190602001200361082557600191505b80806108309061181e565b91505061079c565b5080915050919050565b6000604051806060016040528060025481526020018481526020018381525090806001815401808255809150506001900390600052602060002090600302016000909190919091506000820151816000015560208201518160010190816108a99190611b8e565b5060408201518160020190816108bf9190611b8e565b505050600260008154809291906108d59061181e565b91905055505050565b6000806000905060005b600080549050811015610a20576000818154811061090957610908611866565b5b906000526020600020906003020160010160405160200161092a9190611998565b604051602081830303815290604052805190602001208560405160200161095191906119e0565b6040516020818303038152906040528051906020012003610a0d57600081815481106109805761097f611866565b5b90600052602060002090600302016002016040516020016109a19190611998565b60405160208183030381529060405280519060200120846040516020016109c891906119e0565b6040516020818303038152906040528051906020012003610a0c57600081815481106109f7576109f6611866565b5b90600052602060002090600302016000015491505b5b8080610a189061181e565b9150506108e8565b508091505092915050565b6060600060018054905067ffffffffffffffff811115610a4e57610a4d61131e565b5b604051908082528060200260200182016040528015610a8157816020015b6060815260200190600190039081610a6c5790505b5090506000805b600180549050811015610bad5760018181548110610aa957610aa8611866565b5b9060005260206000209060040201600001548503610b9a5760018181548110610ad557610ad4611866565b5b90600052602060002090600402016001018054610af1906118c4565b80601f0160208091040260200160405190810160405280929190818152602001828054610b1d906118c4565b8015610b6a5780601f10610b3f57610100808354040283529160200191610b6a565b820191906000526020600020905b815481529060010190602001808311610b4d57829003601f168201915b5050505050838380610b7b9061181e565b945081518110610b8e57610b8d611866565b5b60200260200101819052505b8080610ba59061181e565b915050610a88565b508082528192505050919050565b60016040518060800160405280868152602001858152602001848152602001838152509080600181540180825580915050600190039060005260206000209060040201600090919091909150600082015181600001556020820151816001019081610c269190611b8e565b506040820151816002019081610c3c9190611b8e565b506060820151816003019081610c529190611b8e565b50505050505050565b6060600060018054905067ffffffffffffffff811115610c7e57610c7d61131e565b5b604051908082528060200260200182016040528015610cb157816020015b6060815260200190600190039081610c9c5790505b5090506000805b600180549050811015610e5b5760018181548110610cd957610cd8611866565b5b9060005260206000209060040201600101604051602001610cfa9190611998565b6040516020818303038152906040528051906020012085604051602001610d2191906119e0565b60405160208183030381529060405280519060200120148015610d68575060018181548110610d5357610d52611866565b5b90600052602060002090600402016000015486145b15610e485760018181548110610d8157610d80611866565b5b90600052602060002090600402016002018054610d9d906118c4565b80601f0160208091040260200160405190810160405280929190818152602001828054610dc9906118c4565b8015610e165780601f10610deb57610100808354040283529160200191610e16565b820191906000526020600020905b815481529060010190602001808311610df957829003601f168201915b5050505050838381518110610e2e57610e2d611866565b5b60200260200101819052508180610e449061181e565b9250505b8080610e539061181e565b915050610cb8565b50808252819250505092915050565b60008181548110610e7a57600080fd5b9060005260206000209060030201600091509050806000015490806001018054610ea3906118c4565b80601f0160208091040260200160405190810160405280929190818152602001828054610ecf906118c4565b8015610f1c5780601f10610ef157610100808354040283529160200191610f1c565b820191906000526020600020905b815481529060010190602001808311610eff57829003601f168201915b505050505090806002018054610f31906118c4565b80601f0160208091040260200160405190810160405280929190818152602001828054610f5d906118c4565b8015610faa5780601f10610f7f57610100808354040283529160200191610faa565b820191906000526020600020905b815481529060010190602001808311610f8d57829003601f168201915b5050505050905083565b60018181548110610fc457600080fd5b9060005260206000209060040201600091509050806000015490806001018054610fed906118c4565b80601f0160208091040260200160405190810160405280929190818152602001828054611019906118c4565b80156110665780601f1061103b57610100808354040283529160200191611066565b820191906000526020600020905b81548152906001019060200180831161104957829003601f168201915b50505050509080600201805461107b906118c4565b80601f01602080910402602001604051908101604052809291908181526020018280546110a7906118c4565b80156110f45780601f106110c9576101008083540402835291602001916110f4565b820191906000526020600020905b8154815290600101906020018083116110d757829003601f168201915b505050505090806003018054611109906118c4565b80601f0160208091040260200160405190810160405280929190818152602001828054611135906118c4565b80156111825780601f1061115757610100808354040283529160200191611182565b820191906000526020600020905b81548152906001019060200180831161116557829003601f168201915b5050505050905084565b600081519050919050565b600082825260208201905092915050565b6000819050602082019050919050565b600081519050919050565b600082825260208201905092915050565b60005b838110156111f25780820151818401526020810190506111d7565b60008484015250505050565b6000601f19601f8301169050919050565b600061121a826111b8565b61122481856111c3565b93506112348185602086016111d4565b61123d816111fe565b840191505092915050565b6000611254838361120f565b905092915050565b6000602082019050919050565b60006112748261118c565b61127e8185611197565b935083602082028501611290856111a8565b8060005b858110156112cc57848403895281516112ad8582611248565b94506112b88361125c565b925060208a01995050600181019050611294565b50829750879550505050505092915050565b600060208201905081810360008301526112f88184611269565b905092915050565b6000604051905090565b600080fd5b600080fd5b600080fd5b600080fd5b7f4e487b7100000000000000000000000000000000000000000000000000000000600052604160045260246000fd5b611356826111fe565b810181811067ffffffffffffffff821117156113755761137461131e565b5b80604052505050565b6000611388611300565b9050611394828261134d565b919050565b600067ffffffffffffffff8211156113b4576113b361131e565b5b6113bd826111fe565b9050602081019050919050565b82818337600083830152505050565b60006113ec6113e784611399565b61137e565b90508281526020810184848401111561140857611407611319565b5b6114138482856113ca565b509392505050565b600082601f8301126114305761142f611314565b5b81356114408482602086016113d9565b91505092915050565b60006020828403121561145f5761145e61130a565b5b600082013567ffffffffffffffff81111561147d5761147c61130f565b5b6114898482850161141b565b91505092915050565b600082825260208201905092915050565b60006114ae826111b8565b6114b88185611492565b93506114c88185602086016111d4565b6114d1816111fe565b840191505092915050565b600060208201905081810360008301526114f681846114a3565b905092915050565b6000819050919050565b611511816114fe565b811461151c57600080fd5b50565b60008135905061152e81611508565b92915050565b6000806040838503121561154b5761154a61130a565b5b60006115598582860161151f565b925050602083013567ffffffffffffffff81111561157a5761157961130f565b5b6115868582860161141b565b9150509250929050565b60008115159050919050565b6115a581611590565b82525050565b60006020820190506115c0600083018461159c565b92915050565b600080604083850312156115dd576115dc61130a565b5b600083013567ffffffffffffffff8111156115fb576115fa61130f565b5b6116078582860161141b565b925050602083013567ffffffffffffffff8111156116285761162761130f565b5b6116348582860161141b565b9150509250929050565b611647816114fe565b82525050565b6000602082019050611662600083018461163e565b92915050565b60006020828403121561167e5761167d61130a565b5b600061168c8482850161151f565b91505092915050565b600080600080608085870312156116af576116ae61130a565b5b60006116bd8782880161151f565b945050602085013567ffffffffffffffff8111156116de576116dd61130f565b5b6116ea8782880161141b565b935050604085013567ffffffffffffffff81111561170b5761170a61130f565b5b6117178782880161141b565b925050606085013567ffffffffffffffff8111156117385761173761130f565b5b6117448782880161141b565b91505092959194509250565b6000606082019050611765600083018661163e565b818103602083015261177781856114a3565b9050818103604083015261178b81846114a3565b9050949350505050565b60006080820190506117aa600083018761163e565b81810360208301526117bc81866114a3565b905081810360408301526117d081856114a3565b905081810360608301526117e481846114a3565b905095945050505050565b7f4e487b7100000000000000000000000000000000000000000000000000000000600052601160045260246000fd5b6000611829826114fe565b91507fffffffffffffffffffffffffffffffffffffffffffffffffffffffffffffffff820361185b5761185a6117ef565b5b600182019050919050565b7f4e487b7100000000000000000000000000000000000000000000000000000000600052603260045260246000fd5b7f4e487b7100000000000000000000000000000000000000000000000000000000600052602260045260246000fd5b600060028204905060018216806118dc57607f821691505b6020821081036118ef576118ee611895565b5b50919050565b600081905092915050565b60008190508160005260206000209050919050565b60008154611922816118c4565b61192c81866118f5565b94506001821660008114611947576001811461195c5761198f565b60ff198316865281151582028601935061198f565b61196585611900565b60005b8381101561198757815481890152600182019150602081019050611968565b838801955050505b50505092915050565b60006119a48284611915565b915081905092915050565b60006119ba826111b8565b6119c481856118f5565b93506119d48185602086016111d4565b80840191505092915050565b60006119ec82846119af565b915081905092915050565b60006020601f8301049050919050565b600082821b905092915050565b600060088302611a447fffffffffffffffffffffffffffffffffffffffffffffffffffffffffffffffff82611a07565b611a4e8683611a07565b95508019841693508086168417925050509392505050565b6000819050919050565b6000611a8b611a86611a81846114fe565b611a66565b6114fe565b9050919050565b6000819050919050565b611aa583611a70565b611ab9611ab182611a92565b848454611a14565b825550505050565b600090565b611ace611ac1565b611ad9818484611a9c565b505050565b5b81811015611afd57611af2600082611ac6565b600181019050611adf565b5050565b601f821115611b4257611b1381611900565b611b1c846119f7565b81016020851015611b2b578190505b611b3f611b37856119f7565b830182611ade565b50505b505050565b600082821c905092915050565b6000611b6560001984600802611b47565b1980831691505092915050565b6000611b7e8383611b54565b9150826002028217905092915050565b611b97826111b8565b67ffffffffffffffff811115611bb057611baf61131e565b5b611bba82546118c4565b611bc5828285611b01565b600060209050601f831160018114611bf85760008415611be6578287015190505b611bf08582611b72565b865550611c58565b601f198416611c0686611900565b60005b82811015611c2e57848901518255600182019150602085019450602081019050611c09565b86831015611c4b5784890151611c47601f891682611b54565b8355505b6001600288020188555050505b50505050505056fea2646970667358221220ee578d340372ccd00a96c1be52d71816cb0a1571ce2160e9fdf8187913e1a76664736f6c63430008110033",
  "immutableReferences": {},
  "source": "pragma solidity >=0.4.22 <0.9.0;\n// SPDX-License-Identifier: GPL-3.0\n\ncontract PasswordManager {\n    struct userpasswords {\n        uint VaultID;\n        string name;\n        string username;\n        string password;\n    }\n\n    struct vault {\n        uint id;\n        string username;\n        string masterPassword;\n    }\n\n    vault[] public Vault;\n    userpasswords[] public credentials;\n    uint count;\n\n    constructor() {}\n   function getAllVaultUsernames() public view returns(string[] memory) {\n    uint usernameCount = 0;  // Count the number of usernames\n\n    // Loop to count the usernames\n    for (uint i = 0; i < Vault.length; i++) {\n        usernameCount++;\n    }\n\n    string[] memory usernames = new string[](usernameCount);  // Create an array with the correct size\n\n    // Loop to fill the username array\n    uint index = 0;\n    for (uint i = 0; i < Vault.length; i++) {\n        usernames[index] = Vault[i].username;\n        index++;\n    }\n\n    return usernames;\n}\n    function getCredentialNames(uint vid) public view returns(string[] memory)\n    {\n        string[] memory names = new string[](credentials.length);\n        uint count1=0;\n        for(uint i=0;i<credentials.length;i++)\n        {\n            if(vid==credentials[i].VaultID)\n            {\n                names[count1++] = credentials[i].name;\n            }\n        }\n        assembly {\n            mstore(names, count1)\n        }\n\n        return names;\n    } \n    function isUserName(string memory _username) public view returns (bool)\n    {\n        bool a = false;\n        for(uint i=0;i<Vault.length;i++)\n        {\n             if(keccak256(abi.encodePacked(_username)) == keccak256(abi.encodePacked(Vault[i].username)))\n            {\n                a = true;\n            } \n        }\n        return a;\n    }\n    function getMasterPassword(string memory _username) public view returns(string memory)\n    {   string memory password=\"\";\n        for(uint i=0;i<Vault.length;i++)\n        {\n            if(keccak256(abi.encodePacked(_username)) == keccak256(abi.encodePacked(Vault[i].username)))\n            {\n                password = Vault[i].masterPassword;\n            }\n        }\n        return password;\n    }\n    function createNewUser(string memory _username, string memory _masterPassword) public {\n        Vault.push(vault({\n            id: count,\n            username: _username,\n            masterPassword: _masterPassword\n        }));\n        count++;\n    }\n\n    function getVaultID(string memory vaultusername, string memory vaultmasterpassword) public view returns (uint) {\n        uint vid = 0;\n        for (uint i = 0; i < Vault.length; i++) {\n            if (keccak256(abi.encodePacked(vaultusername)) == keccak256(abi.encodePacked(Vault[i].username))) {\n                if (keccak256(abi.encodePacked(vaultmasterpassword)) == keccak256(abi.encodePacked(Vault[i].masterPassword))) {\n                    vid = Vault[i].id;\n                }\n            }\n        }\n        return vid;\n    }\n\n    function addCredentials(uint vid, string memory _name, string memory _username, string memory _password) public {\n        credentials.push(userpasswords({\n            VaultID: vid,\n            name: _name,\n            username: _username,\n            password: _password\n        }));\n    }\n\n    function getCredentialsUserName(uint vid, string memory _name) public view returns (string[] memory) {\n        string[] memory usernames = new string[](credentials.length);\n        uint count1 = 0;\n        for (uint i = 0; i < credentials.length; i++) {\n            if (keccak256(abi.encodePacked(_name)) == keccak256(abi.encodePacked(credentials[i].name)) && vid == credentials[i].VaultID) {\n                usernames[count1] = credentials[i].username;\n                count1++;\n            }\n        }\n        assembly {\n            mstore(usernames, count1)\n        }\n        return usernames;\n    }\n\n    function getCredentialsPassword(uint vid, string memory _name) public view returns (string[] memory) {\n        string[] memory usernames = new string[](credentials.length);\n        uint count1 = 0;\n        for (uint i = 0; i < credentials.length; i++) {\n            if (keccak256(abi.encodePacked(_name)) == keccak256(abi.encodePacked(credentials[i].name)) && vid == credentials[i].VaultID) {\n                usernames[count1] = credentials[i].password;\n                count1++;\n            }\n        }\n        assembly {\n            mstore(usernames, count1)\n        }\n        return usernames;\n    }\n}\n",
  "sourcePath": "/home/yatin/Documents/projects/Password manager tailwind/contracts/PasswordManager.sol",
  "compiler": {
    "name": "solc",
    "version": "0.8.17+commit.8df45f5f.Emscripten.clang"
  },
  "schemaVersion": "3.4.15",
  "updatedAt": "2024-04-07T05:02:44.812Z",
  "networkType": "ethereum",
  "devdoc": {
    "kind": "dev",
    "methods": {},
    "version": 1
  },
  "userdoc": {
    "kind": "user",
    "methods": {},
    "version": 1
  }
}