{
  "contractName": "PasswordManager",
  "abi": [
    {
      "inputs": [],
      "stateMutability": "nonpayable",
      "type": "constructor"
    },
    {
      "inputs": [
        {
          "internalType": "uint256",
          "name": "",
          "type": "uint256"
        }
      ],
      "name": "Vault",
      "outputs": [
        {
          "internalType": "uint256",
          "name": "id",
          "type": "uint256"
        },
        {
          "internalType": "string",
          "name": "username",
          "type": "string"
        },
        {
          "internalType": "string",
          "name": "masterPassword",
          "type": "string"
        }
      ],
      "stateMutability": "view",
      "type": "function",
      "constant": true
    },
    {
      "inputs": [
        {
          "internalType": "uint256",
          "name": "",
          "type": "uint256"
        }
      ],
      "name": "credentials",
      "outputs": [
        {
          "internalType": "uint256",
          "name": "VaultID",
          "type": "uint256"
        },
        {
          "internalType": "string",
          "name": "name",
          "type": "string"
        },
        {
          "internalType": "string",
          "name": "username",
          "type": "string"
        },
        {
          "internalType": "string",
          "name": "password",
          "type": "string"
        }
      ],
      "stateMutability": "view",
      "type": "function",
      "constant": true
    },
    {
      "inputs": [
        {
          "internalType": "uint256",
          "name": "vid",
          "type": "uint256"
        }
      ],
      "name": "getCredentialNames",
      "outputs": [
        {
          "internalType": "string[]",
          "name": "",
          "type": "string[]"
        }
      ],
      "stateMutability": "view",
      "type": "function",
      "constant": true
    },
    {
      "inputs": [
        {
          "internalType": "string",
          "name": "_username",
          "type": "string"
        }
      ],
      "name": "isUserName",
      "outputs": [
        {
          "internalType": "bool",
          "name": "",
          "type": "bool"
        }
      ],
      "stateMutability": "view",
      "type": "function",
      "constant": true
    },
    {
      "inputs": [
        {
          "internalType": "string",
          "name": "_username",
          "type": "string"
        }
      ],
      "name": "getMasterPassword",
      "outputs": [
        {
          "internalType": "string",
          "name": "",
          "type": "string"
        }
      ],
      "stateMutability": "view",
      "type": "function",
      "constant": true
    },
    {
      "inputs": [
        {
          "internalType": "string",
          "name": "_username",
          "type": "string"
        },
        {
          "internalType": "string",
          "name": "_masterPassword",
          "type": "string"
        }
      ],
      "name": "createNewUser",
      "outputs": [],
      "stateMutability": "nonpayable",
      "type": "function"
    },
    {
      "inputs": [
        {
          "internalType": "string",
          "name": "vaultusername",
          "type": "string"
        },
        {
          "internalType": "string",
          "name": "vaultmasterpassword",
          "type": "string"
        }
      ],
      "name": "getVaultID",
      "outputs": [
        {
          "internalType": "uint256",
          "name": "",
          "type": "uint256"
        }
      ],
      "stateMutability": "view",
      "type": "function",
      "constant": true
    },
    {
      "inputs": [
        {
          "internalType": "uint256",
          "name": "vid",
          "type": "uint256"
        },
        {
          "internalType": "string",
          "name": "_name",
          "type": "string"
        },
        {
          "internalType": "string",
          "name": "_username",
          "type": "string"
        },
        {
          "internalType": "string",
          "name": "_password",
          "type": "string"
        }
      ],
      "name": "addCredentials",
      "outputs": [],
      "stateMutability": "nonpayable",
      "type": "function"
    },
    {
      "inputs": [
        {
          "internalType": "uint256",
          "name": "vid",
          "type": "uint256"
        },
        {
          "internalType": "string",
          "name": "_name",
          "type": "string"
        }
      ],
      "name": "getCredentialsUserName",
      "outputs": [
        {
          "internalType": "string[]",
          "name": "",
          "type": "string[]"
        }
      ],
      "stateMutability": "view",
      "type": "function",
      "constant": true
    },
    {
      "inputs": [
        {
          "internalType": "uint256",
          "name": "vid",
          "type": "uint256"
        },
        {
          "internalType": "string",
          "name": "_name",
          "type": "string"
        }
      ],
      "name": "getCredentialsPassword",
      "outputs": [
        {
          "internalType": "string[]",
          "name": "",
          "type": "string[]"
        }
      ],
      "stateMutability": "view",
      "type": "function",
      "constant": true
    }
  ],
  "bytecode": "0x608060405234801561001057600080fd5b50611ade806100206000396000f3fe608060405234801561001057600080fd5b506004361061009e5760003560e01c8063a85a60d511610066578063a85a60d51461017f578063aeb67707146101af578063c74d7d38146101cb578063d7469f0b146101fb578063e0574e3f1461022d5761009e565b8063297c5130146100a35780633ccabfa4146100d35780634044af56146101035780634dfa3f1814610133578063526b00ed1461014f575b600080fd5b6100bd60048036038101906100b8919061112e565b610260565b6040516100ca91906111f6565b60405180910390f35b6100ed60048036038101906100e8919061124e565b6103cb565b6040516100fa91906113b6565b60405180910390f35b61011d6004803603810190610118919061112e565b6105da565b60405161012a91906113f3565b60405180910390f35b61014d6004803603810190610148919061140e565b61068a565b005b6101696004803603810190610164919061140e565b610726565b6040516101769190611495565b60405180910390f35b610199600480360381019061019491906114b0565b610873565b6040516101a691906113b6565b60405180910390f35b6101c960048036038101906101c491906114dd565b610a03565b005b6101e560048036038101906101e0919061124e565b610aa3565b6040516101f291906113b6565b60405180910390f35b610215600480360381019061021091906114b0565b610cb2565b60405161022493929190611598565b60405180910390f35b610247600480360381019061024291906114b0565b610dfc565b60405161025794939291906115dd565b60405180910390f35b6060600060405180602001604052806000815250905060005b6000805490508110156103c1576000818154811061029a57610299611637565b5b90600052602060002090600302016001016040516020016102bb9190611769565b60405160208183030381529060405280519060200120846040516020016102e291906117b1565b60405160208183030381529060405280519060200120036103ae576000818154811061031157610310611637565b5b9060005260206000209060030201600201805461032d90611695565b80601f016020809104026020016040519081016040528092919081815260200182805461035990611695565b80156103a65780601f1061037b576101008083540402835291602001916103a6565b820191906000526020600020905b81548152906001019060200180831161038957829003601f168201915b505050505091505b80806103b9906117f7565b915050610279565b5080915050919050565b6060600060018054905067ffffffffffffffff8111156103ee576103ed611003565b5b60405190808252806020026020018201604052801561042157816020015b606081526020019060019003908161040c5790505b5090506000805b6001805490508110156105cb576001818154811061044957610448611637565b5b906000526020600020906004020160010160405160200161046a9190611769565b604051602081830303815290604052805190602001208560405160200161049191906117b1565b604051602081830303815290604052805190602001201480156104d85750600181815481106104c3576104c2611637565b5b90600052602060002090600402016000015486145b156105b857600181815481106104f1576104f0611637565b5b9060005260206000209060040201600301805461050d90611695565b80601f016020809104026020016040519081016040528092919081815260200182805461053990611695565b80156105865780601f1061055b57610100808354040283529160200191610586565b820191906000526020600020905b81548152906001019060200180831161056957829003601f168201915b505050505083838151811061059e5761059d611637565b5b602002602001018190525081806105b4906117f7565b9250505b80806105c3906117f7565b915050610428565b50808252819250505092915050565b6000806000905060005b600080549050811015610680576000818154811061060557610604611637565b5b90600052602060002090600302016001016040516020016106269190611769565b604051602081830303815290604052805190602001208460405160200161064d91906117b1565b604051602081830303815290604052805190602001200361066d57600191505b8080610678906117f7565b9150506105e4565b5080915050919050565b6000604051806060016040528060025481526020018481526020018381525090806001815401808255809150506001900390600052602060002090600302016000909190919091506000820151816000015560208201518160010190816106f191906119d6565b50604082015181600201908161070791906119d6565b5050506002600081548092919061071d906117f7565b91905055505050565b6000806000905060005b600080549050811015610868576000818154811061075157610750611637565b5b90600052602060002090600302016001016040516020016107729190611769565b604051602081830303815290604052805190602001208560405160200161079991906117b1565b604051602081830303815290604052805190602001200361085557600081815481106107c8576107c7611637565b5b90600052602060002090600302016002016040516020016107e99190611769565b604051602081830303815290604052805190602001208460405160200161081091906117b1565b6040516020818303038152906040528051906020012003610854576000818154811061083f5761083e611637565b5b90600052602060002090600302016000015491505b5b8080610860906117f7565b915050610730565b508091505092915050565b6060600060018054905067ffffffffffffffff81111561089657610895611003565b5b6040519080825280602002602001820160405280156108c957816020015b60608152602001906001900390816108b45790505b5090506000805b6001805490508110156109f557600181815481106108f1576108f0611637565b5b90600052602060002090600402016000015485036109e2576001818154811061091d5761091c611637565b5b9060005260206000209060040201600101805461093990611695565b80601f016020809104026020016040519081016040528092919081815260200182805461096590611695565b80156109b25780601f10610987576101008083540402835291602001916109b2565b820191906000526020600020905b81548152906001019060200180831161099557829003601f168201915b50505050508383806109c3906117f7565b9450815181106109d6576109d5611637565b5b60200260200101819052505b80806109ed906117f7565b9150506108d0565b508082528192505050919050565b60016040518060800160405280868152602001858152602001848152602001838152509080600181540180825580915050600190039060005260206000209060040201600090919091909150600082015181600001556020820151816001019081610a6e91906119d6565b506040820151816002019081610a8491906119d6565b506060820151816003019081610a9a91906119d6565b50505050505050565b6060600060018054905067ffffffffffffffff811115610ac657610ac5611003565b5b604051908082528060200260200182016040528015610af957816020015b6060815260200190600190039081610ae45790505b5090506000805b600180549050811015610ca35760018181548110610b2157610b20611637565b5b9060005260206000209060040201600101604051602001610b429190611769565b6040516020818303038152906040528051906020012085604051602001610b6991906117b1565b60405160208183030381529060405280519060200120148015610bb0575060018181548110610b9b57610b9a611637565b5b90600052602060002090600402016000015486145b15610c905760018181548110610bc957610bc8611637565b5b90600052602060002090600402016002018054610be590611695565b80601f0160208091040260200160405190810160405280929190818152602001828054610c1190611695565b8015610c5e5780601f10610c3357610100808354040283529160200191610c5e565b820191906000526020600020905b815481529060010190602001808311610c4157829003601f168201915b5050505050838381518110610c7657610c75611637565b5b60200260200101819052508180610c8c906117f7565b9250505b8080610c9b906117f7565b915050610b00565b50808252819250505092915050565b60008181548110610cc257600080fd5b9060005260206000209060030201600091509050806000015490806001018054610ceb90611695565b80601f0160208091040260200160405190810160405280929190818152602001828054610d1790611695565b8015610d645780601f10610d3957610100808354040283529160200191610d64565b820191906000526020600020905b815481529060010190602001808311610d4757829003601f168201915b505050505090806002018054610d7990611695565b80601f0160208091040260200160405190810160405280929190818152602001828054610da590611695565b8015610df25780601f10610dc757610100808354040283529160200191610df2565b820191906000526020600020905b815481529060010190602001808311610dd557829003601f168201915b5050505050905083565b60018181548110610e0c57600080fd5b9060005260206000209060040201600091509050806000015490806001018054610e3590611695565b80601f0160208091040260200160405190810160405280929190818152602001828054610e6190611695565b8015610eae5780601f10610e8357610100808354040283529160200191610eae565b820191906000526020600020905b815481529060010190602001808311610e9157829003601f168201915b505050505090806002018054610ec390611695565b80601f0160208091040260200160405190810160405280929190818152602001828054610eef90611695565b8015610f3c5780601f10610f1157610100808354040283529160200191610f3c565b820191906000526020600020905b815481529060010190602001808311610f1f57829003601f168201915b505050505090806003018054610f5190611695565b80601f0160208091040260200160405190810160405280929190818152602001828054610f7d90611695565b8015610fca5780601f10610f9f57610100808354040283529160200191610fca565b820191906000526020600020905b815481529060010190602001808311610fad57829003601f168201915b5050505050905084565b6000604051905090565b600080fd5b600080fd5b600080fd5b600080fd5b6000601f19601f8301169050919050565b7f4e487b7100000000000000000000000000000000000000000000000000000000600052604160045260246000fd5b61103b82610ff2565b810181811067ffffffffffffffff8211171561105a57611059611003565b5b80604052505050565b600061106d610fd4565b90506110798282611032565b919050565b600067ffffffffffffffff82111561109957611098611003565b5b6110a282610ff2565b9050602081019050919050565b82818337600083830152505050565b60006110d16110cc8461107e565b611063565b9050828152602081018484840111156110ed576110ec610fed565b5b6110f88482856110af565b509392505050565b600082601f83011261111557611114610fe8565b5b81356111258482602086016110be565b91505092915050565b60006020828403121561114457611143610fde565b5b600082013567ffffffffffffffff81111561116257611161610fe3565b5b61116e84828501611100565b91505092915050565b600081519050919050565b600082825260208201905092915050565b60005b838110156111b1578082015181840152602081019050611196565b60008484015250505050565b60006111c882611177565b6111d28185611182565b93506111e2818560208601611193565b6111eb81610ff2565b840191505092915050565b6000602082019050818103600083015261121081846111bd565b905092915050565b6000819050919050565b61122b81611218565b811461123657600080fd5b50565b60008135905061124881611222565b92915050565b6000806040838503121561126557611264610fde565b5b600061127385828601611239565b925050602083013567ffffffffffffffff81111561129457611293610fe3565b5b6112a085828601611100565b9150509250929050565b600081519050919050565b600082825260208201905092915050565b6000819050602082019050919050565b600082825260208201905092915050565b60006112f282611177565b6112fc81856112d6565b935061130c818560208601611193565b61131581610ff2565b840191505092915050565b600061132c83836112e7565b905092915050565b6000602082019050919050565b600061134c826112aa565b61135681856112b5565b935083602082028501611368856112c6565b8060005b858110156113a457848403895281516113858582611320565b945061139083611334565b925060208a0199505060018101905061136c565b50829750879550505050505092915050565b600060208201905081810360008301526113d08184611341565b905092915050565b60008115159050919050565b6113ed816113d8565b82525050565b600060208201905061140860008301846113e4565b92915050565b6000806040838503121561142557611424610fde565b5b600083013567ffffffffffffffff81111561144357611442610fe3565b5b61144f85828601611100565b925050602083013567ffffffffffffffff8111156114705761146f610fe3565b5b61147c85828601611100565b9150509250929050565b61148f81611218565b82525050565b60006020820190506114aa6000830184611486565b92915050565b6000602082840312156114c6576114c5610fde565b5b60006114d484828501611239565b91505092915050565b600080600080608085870312156114f7576114f6610fde565b5b600061150587828801611239565b945050602085013567ffffffffffffffff81111561152657611525610fe3565b5b61153287828801611100565b935050604085013567ffffffffffffffff81111561155357611552610fe3565b5b61155f87828801611100565b925050606085013567ffffffffffffffff8111156115805761157f610fe3565b5b61158c87828801611100565b91505092959194509250565b60006060820190506115ad6000830186611486565b81810360208301526115bf81856111bd565b905081810360408301526115d381846111bd565b9050949350505050565b60006080820190506115f26000830187611486565b818103602083015261160481866111bd565b9050818103604083015261161881856111bd565b9050818103606083015261162c81846111bd565b905095945050505050565b7f4e487b7100000000000000000000000000000000000000000000000000000000600052603260045260246000fd5b7f4e487b7100000000000000000000000000000000000000000000000000000000600052602260045260246000fd5b600060028204905060018216806116ad57607f821691505b6020821081036116c0576116bf611666565b5b50919050565b600081905092915050565b60008190508160005260206000209050919050565b600081546116f381611695565b6116fd81866116c6565b94506001821660008114611718576001811461172d57611760565b60ff1983168652811515820286019350611760565b611736856116d1565b60005b8381101561175857815481890152600182019150602081019050611739565b838801955050505b50505092915050565b600061177582846116e6565b915081905092915050565b600061178b82611177565b61179581856116c6565b93506117a5818560208601611193565b80840191505092915050565b60006117bd8284611780565b915081905092915050565b7f4e487b7100000000000000000000000000000000000000000000000000000000600052601160045260246000fd5b600061180282611218565b91507fffffffffffffffffffffffffffffffffffffffffffffffffffffffffffffffff8203611834576118336117c8565b5b600182019050919050565b60006020601f8301049050919050565b600082821b905092915050565b60006008830261188c7fffffffffffffffffffffffffffffffffffffffffffffffffffffffffffffffff8261184f565b611896868361184f565b95508019841693508086168417925050509392505050565b6000819050919050565b60006118d36118ce6118c984611218565b6118ae565b611218565b9050919050565b6000819050919050565b6118ed836118b8565b6119016118f9826118da565b84845461185c565b825550505050565b600090565b611916611909565b6119218184846118e4565b505050565b5b818110156119455761193a60008261190e565b600181019050611927565b5050565b601f82111561198a5761195b816116d1565b6119648461183f565b81016020851015611973578190505b61198761197f8561183f565b830182611926565b50505b505050565b600082821c905092915050565b60006119ad6000198460080261198f565b1980831691505092915050565b60006119c6838361199c565b9150826002028217905092915050565b6119df82611177565b67ffffffffffffffff8111156119f8576119f7611003565b5b611a028254611695565b611a0d828285611949565b600060209050601f831160018114611a405760008415611a2e578287015190505b611a3885826119ba565b865550611aa0565b601f198416611a4e866116d1565b60005b82811015611a7657848901518255600182019150602085019450602081019050611a51565b86831015611a935784890151611a8f601f89168261199c565b8355505b6001600288020188555050505b50505050505056fea264697066735822122006c3f4ddd05d097e0d019a6b6fdfcd47440ecd9e42351ef84aaf1301a587fc4464736f6c63430008110033",
  "immutableReferences": {},
  "source": "pragma solidity >=0.4.22 <0.9.0;\n// SPDX-License-Identifier: GPL-3.0\n\ncontract PasswordManager {\n    struct userpasswords {\n        uint VaultID;\n        string name;\n        string username;\n        string password;\n    }\n\n    struct vault {\n        uint id;\n        string username;\n        string masterPassword;\n    }\n\n    vault[] public Vault;\n    userpasswords[] public credentials;\n    uint count;\n\n    constructor() {}\n    function getCredentialNames(uint vid) public view returns(string[] memory)\n    {\n        string[] memory names = new string[](credentials.length);\n        uint count1=0;\n        for(uint i=0;i<credentials.length;i++)\n        {\n            if(vid==credentials[i].VaultID)\n            {\n                names[count1++] = credentials[i].name;\n            }\n        }\n        assembly {\n            mstore(names, count1)\n        }\n\n        return names;\n    } \n    function isUserName(string memory _username) public view returns (bool)\n    {\n        bool a = false;\n        for(uint i=0;i<Vault.length;i++)\n        {\n             if(keccak256(abi.encodePacked(_username)) == keccak256(abi.encodePacked(Vault[i].username)))\n            {\n                a = true;\n            } \n        }\n        return a;\n    }\n    function getMasterPassword(string memory _username) public view returns(string memory)\n    {   string memory password=\"\";\n        for(uint i=0;i<Vault.length;i++)\n        {\n            if(keccak256(abi.encodePacked(_username)) == keccak256(abi.encodePacked(Vault[i].username)))\n            {\n                password = Vault[i].masterPassword;\n            }\n        }\n        return password;\n    }\n    function createNewUser(string memory _username, string memory _masterPassword) public {\n        Vault.push(vault({\n            id: count,\n            username: _username,\n            masterPassword: _masterPassword\n        }));\n        count++;\n    }\n\n    function getVaultID(string memory vaultusername, string memory vaultmasterpassword) public view returns (uint) {\n        uint vid = 0;\n        for (uint i = 0; i < Vault.length; i++) {\n            if (keccak256(abi.encodePacked(vaultusername)) == keccak256(abi.encodePacked(Vault[i].username))) {\n                if (keccak256(abi.encodePacked(vaultmasterpassword)) == keccak256(abi.encodePacked(Vault[i].masterPassword))) {\n                    vid = Vault[i].id;\n                }\n            }\n        }\n        return vid;\n    }\n\n    function addCredentials(uint vid, string memory _name, string memory _username, string memory _password) public {\n        credentials.push(userpasswords({\n            VaultID: vid,\n            name: _name,\n            username: _username,\n            password: _password\n        }));\n    }\n\n    function getCredentialsUserName(uint vid, string memory _name) public view returns (string[] memory) {\n        string[] memory usernames = new string[](credentials.length);\n        uint count1 = 0;\n        for (uint i = 0; i < credentials.length; i++) {\n            if (keccak256(abi.encodePacked(_name)) == keccak256(abi.encodePacked(credentials[i].name)) && vid == credentials[i].VaultID) {\n                usernames[count1] = credentials[i].username;\n                count1++;\n            }\n        }\n        assembly {\n            mstore(usernames, count1)\n        }\n        return usernames;\n    }\n\n    function getCredentialsPassword(uint vid, string memory _name) public view returns (string[] memory) {\n        string[] memory usernames = new string[](credentials.length);\n        uint count1 = 0;\n        for (uint i = 0; i < credentials.length; i++) {\n            if (keccak256(abi.encodePacked(_name)) == keccak256(abi.encodePacked(credentials[i].name)) && vid == credentials[i].VaultID) {\n                usernames[count1] = credentials[i].password;\n                count1++;\n            }\n        }\n        assembly {\n            mstore(usernames, count1)\n        }\n        return usernames;\n    }\n}\n",
  "sourcePath": "/home/yatin/Documents/projects/Password manager tailwind/contracts/PasswordManager.sol",
  "compiler": {
    "name": "solc",
    "version": "0.8.17+commit.8df45f5f.Emscripten.clang"
  },
  "schemaVersion": "3.4.15",
  "updatedAt": "2024-02-21T05:49:40.930Z",
  "networkType": "ethereum",
  "devdoc": {
    "kind": "dev",
    "methods": {},
    "version": 1
  },
  "userdoc": {
    "kind": "user",
    "methods": {},
    "version": 1
  }
}